{
  "contractName": "OneTrueWarriorToken",
  "abi": [
    {
      "inputs": [
        {
          "internalType": "string",
          "name": "_name",
          "type": "string"
        },
        {
          "internalType": "string",
          "name": "_symbol",
          "type": "string"
        }
      ],
      "stateMutability": "nonpayable",
      "type": "constructor"
    },
    {
      "anonymous": false,
      "inputs": [
        {
          "indexed": true,
          "internalType": "address",
          "name": "owner",
          "type": "address"
        },
        {
          "indexed": true,
          "internalType": "address",
          "name": "approved",
          "type": "address"
        },
        {
          "indexed": true,
          "internalType": "uint256",
          "name": "tokenId",
          "type": "uint256"
        }
      ],
      "name": "Approval",
      "type": "event"
    },
    {
      "anonymous": false,
      "inputs": [
        {
          "indexed": true,
          "internalType": "address",
          "name": "owner",
          "type": "address"
        },
        {
          "indexed": true,
          "internalType": "address",
          "name": "operator",
          "type": "address"
        },
        {
          "indexed": false,
          "internalType": "bool",
          "name": "approved",
          "type": "bool"
        }
      ],
      "name": "ApprovalForAll",
      "type": "event"
    },
    {
      "anonymous": false,
      "inputs": [
        {
          "indexed": true,
          "internalType": "address",
          "name": "owner",
          "type": "address"
        },
        {
          "indexed": false,
          "internalType": "uint256",
          "name": "id",
          "type": "uint256"
        },
        {
          "indexed": false,
          "internalType": "uint256",
          "name": "hashNumber",
          "type": "uint256"
        }
      ],
      "name": "NewToken",
      "type": "event"
    },
    {
      "anonymous": false,
      "inputs": [
        {
          "indexed": true,
          "internalType": "address",
          "name": "previousOwner",
          "type": "address"
        },
        {
          "indexed": true,
          "internalType": "address",
          "name": "newOwner",
          "type": "address"
        }
      ],
      "name": "OwnershipTransferred",
      "type": "event"
    },
    {
      "anonymous": false,
      "inputs": [
        {
          "indexed": true,
          "internalType": "address",
          "name": "from",
          "type": "address"
        },
        {
          "indexed": true,
          "internalType": "address",
          "name": "to",
          "type": "address"
        },
        {
          "indexed": true,
          "internalType": "uint256",
          "name": "tokenId",
          "type": "uint256"
        }
      ],
      "name": "Transfer",
      "type": "event"
    },
    {
      "inputs": [
        {
          "internalType": "address",
          "name": "to",
          "type": "address"
        },
        {
          "internalType": "uint256",
          "name": "tokenId",
          "type": "uint256"
        }
      ],
      "name": "approve",
      "outputs": [],
      "stateMutability": "nonpayable",
      "type": "function"
    },
    {
      "inputs": [
        {
          "internalType": "address",
          "name": "owner",
          "type": "address"
        }
      ],
      "name": "balanceOf",
      "outputs": [
        {
          "internalType": "uint256",
          "name": "",
          "type": "uint256"
        }
      ],
      "stateMutability": "view",
      "type": "function",
      "constant": true
    },
    {
      "inputs": [
        {
          "internalType": "uint256",
          "name": "tokenId",
          "type": "uint256"
        }
      ],
      "name": "getApproved",
      "outputs": [
        {
          "internalType": "address",
          "name": "",
          "type": "address"
        }
      ],
      "stateMutability": "view",
      "type": "function",
      "constant": true
    },
    {
      "inputs": [
        {
          "internalType": "address",
          "name": "owner",
          "type": "address"
        },
        {
          "internalType": "address",
          "name": "operator",
          "type": "address"
        }
      ],
      "name": "isApprovedForAll",
      "outputs": [
        {
          "internalType": "bool",
          "name": "",
          "type": "bool"
        }
      ],
      "stateMutability": "view",
      "type": "function",
      "constant": true
    },
    {
      "inputs": [],
      "name": "name",
      "outputs": [
        {
          "internalType": "string",
          "name": "",
          "type": "string"
        }
      ],
      "stateMutability": "view",
      "type": "function",
      "constant": true
    },
    {
      "inputs": [
        {
          "internalType": "uint256",
          "name": "",
          "type": "uint256"
        }
      ],
      "name": "oneTruWarriors",
      "outputs": [
        {
          "internalType": "string",
          "name": "name",
          "type": "string"
        },
        {
          "internalType": "uint256",
          "name": "id",
          "type": "uint256"
        },
        {
          "internalType": "uint256",
          "name": "hashNumber",
          "type": "uint256"
        },
        {
          "internalType": "uint8",
          "name": "level",
          "type": "uint8"
        },
        {
          "internalType": "uint8",
          "name": "rarity",
          "type": "uint8"
        },
        {
          "internalType": "uint8",
          "name": "attack",
          "type": "uint8"
        },
        {
          "internalType": "uint8",
          "name": "defense",
          "type": "uint8"
        }
      ],
      "stateMutability": "view",
      "type": "function",
      "constant": true
    },
    {
      "inputs": [],
      "name": "owner",
      "outputs": [
        {
          "internalType": "address",
          "name": "",
          "type": "address"
        }
      ],
      "stateMutability": "view",
      "type": "function",
      "constant": true
    },
    {
      "inputs": [
        {
          "internalType": "uint256",
          "name": "tokenId",
          "type": "uint256"
        }
      ],
      "name": "ownerOf",
      "outputs": [
        {
          "internalType": "address",
          "name": "",
          "type": "address"
        }
      ],
      "stateMutability": "view",
      "type": "function",
      "constant": true
    },
    {
      "inputs": [],
      "name": "renounceOwnership",
      "outputs": [],
      "stateMutability": "nonpayable",
      "type": "function"
    },
    {
      "inputs": [
        {
          "internalType": "address",
          "name": "from",
          "type": "address"
        },
        {
          "internalType": "address",
          "name": "to",
          "type": "address"
        },
        {
          "internalType": "uint256",
          "name": "tokenId",
          "type": "uint256"
        }
      ],
      "name": "safeTransferFrom",
      "outputs": [],
      "stateMutability": "nonpayable",
      "type": "function"
    },
    {
      "inputs": [
        {
          "internalType": "address",
          "name": "from",
          "type": "address"
        },
        {
          "internalType": "address",
          "name": "to",
          "type": "address"
        },
        {
          "internalType": "uint256",
          "name": "tokenId",
          "type": "uint256"
        },
        {
          "internalType": "bytes",
          "name": "_data",
          "type": "bytes"
        }
      ],
      "name": "safeTransferFrom",
      "outputs": [],
      "stateMutability": "nonpayable",
      "type": "function"
    },
    {
      "inputs": [
        {
          "internalType": "address",
          "name": "operator",
          "type": "address"
        },
        {
          "internalType": "bool",
          "name": "approved",
          "type": "bool"
        }
      ],
      "name": "setApprovalForAll",
      "outputs": [],
      "stateMutability": "nonpayable",
      "type": "function"
    },
    {
      "inputs": [
        {
          "internalType": "bytes4",
          "name": "interfaceId",
          "type": "bytes4"
        }
      ],
      "name": "supportsInterface",
      "outputs": [
        {
          "internalType": "bool",
          "name": "",
          "type": "bool"
        }
      ],
      "stateMutability": "view",
      "type": "function",
      "constant": true
    },
    {
      "inputs": [],
      "name": "symbol",
      "outputs": [
        {
          "internalType": "string",
          "name": "",
          "type": "string"
        }
      ],
      "stateMutability": "view",
      "type": "function",
      "constant": true
    },
    {
      "inputs": [
        {
          "internalType": "uint256",
          "name": "tokenId",
          "type": "uint256"
        }
      ],
      "name": "tokenURI",
      "outputs": [
        {
          "internalType": "string",
          "name": "",
          "type": "string"
        }
      ],
      "stateMutability": "view",
      "type": "function",
      "constant": true
    },
    {
      "inputs": [
        {
          "internalType": "address",
          "name": "from",
          "type": "address"
        },
        {
          "internalType": "address",
          "name": "to",
          "type": "address"
        },
        {
          "internalType": "uint256",
          "name": "tokenId",
          "type": "uint256"
        }
      ],
      "name": "transferFrom",
      "outputs": [],
      "stateMutability": "nonpayable",
      "type": "function"
    },
    {
      "inputs": [
        {
          "internalType": "address",
          "name": "newOwner",
          "type": "address"
        }
      ],
      "name": "transferOwnership",
      "outputs": [],
      "stateMutability": "nonpayable",
      "type": "function"
    },
    {
      "inputs": [
        {
          "internalType": "string",
          "name": "_name",
          "type": "string"
        }
      ],
      "name": "createRandomToken",
      "outputs": [],
      "stateMutability": "payable",
      "type": "function",
      "payable": true
    },
    {
      "inputs": [
        {
          "internalType": "uint256",
          "name": "_fee",
          "type": "uint256"
        }
      ],
      "name": "updateFee",
      "outputs": [],
      "stateMutability": "nonpayable",
      "type": "function"
    },
    {
      "inputs": [],
      "name": "withdraw",
      "outputs": [],
      "stateMutability": "payable",
      "type": "function",
      "payable": true
    },
    {
      "inputs": [],
      "name": "getToken",
      "outputs": [
        {
          "components": [
            {
              "internalType": "string",
              "name": "name",
              "type": "string"
            },
            {
              "internalType": "uint256",
              "name": "id",
              "type": "uint256"
            },
            {
              "internalType": "uint256",
              "name": "hashNumber",
              "type": "uint256"
            },
            {
              "internalType": "uint8",
              "name": "level",
              "type": "uint8"
            },
            {
              "internalType": "uint8",
              "name": "rarity",
              "type": "uint8"
            },
            {
              "internalType": "uint8",
              "name": "attack",
              "type": "uint8"
            },
            {
              "internalType": "uint8",
              "name": "defense",
              "type": "uint8"
            }
          ],
          "internalType": "struct OneTrueWarriorToken.OneTrueWarrior[]",
          "name": "",
          "type": "tuple[]"
        }
      ],
      "stateMutability": "view",
      "type": "function",
      "constant": true
    },
    {
      "inputs": [
        {
          "internalType": "address",
          "name": "_owner",
          "type": "address"
        }
      ],
      "name": "getOwner",
      "outputs": [
        {
          "components": [
            {
              "internalType": "string",
              "name": "name",
              "type": "string"
            },
            {
              "internalType": "uint256",
              "name": "id",
              "type": "uint256"
            },
            {
              "internalType": "uint256",
              "name": "hashNumber",
              "type": "uint256"
            },
            {
              "internalType": "uint8",
              "name": "level",
              "type": "uint8"
            },
            {
              "internalType": "uint8",
              "name": "rarity",
              "type": "uint8"
            },
            {
              "internalType": "uint8",
              "name": "attack",
              "type": "uint8"
            },
            {
              "internalType": "uint8",
              "name": "defense",
              "type": "uint8"
            }
          ],
          "internalType": "struct OneTrueWarriorToken.OneTrueWarrior[]",
          "name": "",
          "type": "tuple[]"
        }
      ],
      "stateMutability": "view",
      "type": "function",
      "constant": true
    },
    {
      "inputs": [
        {
          "internalType": "uint256",
          "name": "_warriorId",
          "type": "uint256"
        }
      ],
      "name": "levelUp",
      "outputs": [],
      "stateMutability": "nonpayable",
      "type": "function"
    }
  ],
  "bytecode": "0x6080604052655af3107a40006008553480156200001b57600080fd5b5060405162002435380380620024358339810160408190526200003e9162000241565b81518290829062000057906000906020850190620000e8565b5080516200006d906001906020840190620000e8565b5050506200008a620000846200009260201b60201c565b62000096565b5050620002fb565b3390565b600680546001600160a01b038381166001600160a01b0319831681179093556040519116919082907f8be0079c531659141344cd1fd0a4f28419497f9722a3daafe3b4186f6b6457e090600090a35050565b828054620000f690620002a8565b90600052602060002090601f0160209004810192826200011a576000855562000165565b82601f106200013557805160ff191683800117855562000165565b8280016001018555821562000165579182015b828111156200016557825182559160200191906001019062000148565b506200017392915062000177565b5090565b5b8082111562000173576000815560010162000178565b600082601f8301126200019f578081fd5b81516001600160401b0380821115620001bc57620001bc620002e5565b604051601f8301601f19908116603f01168101908282118183101715620001e757620001e7620002e5565b8160405283815260209250868385880101111562000203578485fd5b8491505b8382101562000226578582018301518183018401529082019062000207565b838211156200023757848385830101525b9695505050505050565b6000806040838503121562000254578182fd5b82516001600160401b03808211156200026b578384fd5b62000279868387016200018e565b935060208501519150808211156200028f578283fd5b506200029e858286016200018e565b9150509250929050565b600281046001821680620002bd57607f821691505b60208210811415620002df57634e487b7160e01b600052602260045260246000fd5b50919050565b634e487b7160e01b600052604160045260246000fd5b61212a806200030b6000396000f3fe6080604052600436106101405760003560e01c806370a08231116100b6578063b88d4fde1161006f578063b88d4fde14610389578063c6e72685146103a9578063c87b56dd146103bc578063e985e9c5146103dc578063f2fde38b14610425578063fa5441611461044557610140565b806370a08231146102d3578063715018a6146103015780638da5cb5b146103165780639012c4a81461033457806395d89b4114610354578063a22cb4651461036957610140565b8063206770a511610108578063206770a51461021657806321df0da71461024957806323b872dd1461026b5780633ccfd60b1461028b57806342842e0e146102935780636352211e146102b357610140565b806301ffc9a71461014557806306fdde031461017a578063081812fc1461019c578063095ea7b3146101d45780630ce90ec2146101f6575b600080fd5b34801561015157600080fd5b50610165610160366004611c8e565b610465565b60405190151581526020015b60405180910390f35b34801561018657600080fd5b5061018f6104b9565b6040516101719190611e6f565b3480156101a857600080fd5b506101bc6101b7366004611d0c565b61054b565b6040516001600160a01b039091168152602001610171565b3480156101e057600080fd5b506101f46101ef366004611c65565b6105e5565b005b34801561020257600080fd5b506101f4610211366004611d0c565b6106fb565b34801561022257600080fd5b50610236610231366004611d0c565b610780565b6040516101719796959493929190611e82565b34801561025557600080fd5b5061025e610869565b6040516101719190611dbc565b34801561027757600080fd5b506101f4610286366004611b77565b6109aa565b6101f46109db565b34801561029f57600080fd5b506101f46102ae366004611b77565b610a55565b3480156102bf57600080fd5b506101bc6102ce366004611d0c565b610a70565b3480156102df57600080fd5b506102f36102ee366004611b2b565b610ae7565b604051908152602001610171565b34801561030d57600080fd5b506101f4610b6e565b34801561032257600080fd5b506006546001600160a01b03166101bc565b34801561034057600080fd5b506101f461034f366004611d0c565b610ba4565b34801561036057600080fd5b5061018f610bd3565b34801561037557600080fd5b506101f4610384366004611c2b565b610be2565b34801561039557600080fd5b506101f46103a4366004611bb2565b610bed565b6101f46103b7366004611cc6565b610c25565b3480156103c857600080fd5b5061018f6103d7366004611d0c565b610c40565b3480156103e857600080fd5b506101656103f7366004611b45565b6001600160a01b03918216600090815260056020908152604080832093909416825291909152205460ff1690565b34801561043157600080fd5b506101f4610440366004611b2b565b610d28565b34801561045157600080fd5b5061025e610460366004611b2b565b610dc0565b60006001600160e01b031982166380ac58cd60e01b148061049657506001600160e01b03198216635b5e139f60e01b145b806104b157506301ffc9a760e01b6001600160e01b03198316145b90505b919050565b6060600080546104c890612012565b80601f01602080910402602001604051908101604052809291908181526020018280546104f490612012565b80156105415780601f1061051657610100808354040283529160200191610541565b820191906000526020600020905b81548152906001019060200180831161052457829003601f168201915b5050505050905090565b6000818152600260205260408120546001600160a01b03166105c95760405162461bcd60e51b815260206004820152602c60248201527f4552433732313a20617070726f76656420717565727920666f72206e6f6e657860448201526b34b9ba32b73a103a37b5b2b760a11b60648201526084015b60405180910390fd5b506000908152600460205260409020546001600160a01b031690565b60006105f082610a70565b9050806001600160a01b0316836001600160a01b0316141561065e5760405162461bcd60e51b815260206004820152602160248201527f4552433732313a20617070726f76616c20746f2063757272656e74206f776e656044820152603960f91b60648201526084016105c0565b336001600160a01b038216148061067a575061067a81336103f7565b6106ec5760405162461bcd60e51b815260206004820152603860248201527f4552433732313a20617070726f76652063616c6c6572206973206e6f74206f7760448201527f6e6572206e6f7220617070726f76656420666f7220616c6c000000000000000060648201526084016105c0565b6106f68383610ffc565b505050565b3361070582610a70565b6001600160a01b03161461071857600080fd5b60006009828154811061073b57634e487b7160e01b600052603260045260246000fd5b6000918252602082206003600490920201908101805491935060ff9091169161076383612068565b91906101000a81548160ff021916908360ff160217905550505050565b6009818154811061079057600080fd5b90600052602060002090600402016000915090508060000180546107b390612012565b80601f01602080910402602001604051908101604052809291908181526020018280546107df90612012565b801561082c5780601f106108015761010080835404028352916020019161082c565b820191906000526020600020905b81548152906001019060200180831161080f57829003601f168201915b50505050600183015460028401546003909401549293909290915060ff808216916101008104821691620100008204811691630100000090041687565b60606009805480602002602001604051908101604052809291908181526020016000905b828210156109a157838290600052602060002090600402016040518060e00160405290816000820180546108c090612012565b80601f01602080910402602001604051908101604052809291908181526020018280546108ec90612012565b80156109395780601f1061090e57610100808354040283529160200191610939565b820191906000526020600020905b81548152906001019060200180831161091c57829003601f168201915b50505091835250506001828101546020808401919091526002840154604084015260039093015460ff8082166060850152610100820481166080850152620100008204811660a085015263010000009091041660c0909201919091529183529201910161088d565b50505050905090565b6109b4338261106a565b6109d05760405162461bcd60e51b81526004016105c090611f52565b6106f6838383611161565b6006546001600160a01b03163314610a055760405162461bcd60e51b81526004016105c090611f1d565b6000610a196006546001600160a01b031690565b6040519091506001600160a01b038216904780156108fc02916000818181858888f19350505050158015610a51573d6000803e3d6000fd5b5050565b6106f683838360405180602001604052806000815250610bed565b6000818152600260205260408120546001600160a01b0316806104b15760405162461bcd60e51b815260206004820152602960248201527f4552433732313a206f776e657220717565727920666f72206e6f6e657869737460448201526832b73a103a37b5b2b760b91b60648201526084016105c0565b60006001600160a01b038216610b525760405162461bcd60e51b815260206004820152602a60248201527f4552433732313a2062616c616e636520717565727920666f7220746865207a65604482015269726f206164647265737360b01b60648201526084016105c0565b506001600160a01b031660009081526003602052604090205490565b6006546001600160a01b03163314610b985760405162461bcd60e51b81526004016105c090611f1d565b610ba260006112fd565b565b6006546001600160a01b03163314610bce5760405162461bcd60e51b81526004016105c090611f1d565b600855565b6060600180546104c890612012565b610a5133838361134f565b610bf7338361106a565b610c135760405162461bcd60e51b81526004016105c090611f52565b610c1f8484848461141e565b50505050565b600854341015610c3457600080fd5b610c3d81611451565b50565b6000818152600260205260409020546060906001600160a01b0316610cbf5760405162461bcd60e51b815260206004820152602f60248201527f4552433732314d657461646174613a2055524920717565727920666f72206e6f60448201526e3732bc34b9ba32b73a103a37b5b2b760891b60648201526084016105c0565b6000610cd660408051602081019091526000815290565b90506000815111610cf65760405180602001604052806000815250610d21565b80610d00846115fd565b604051602001610d11929190611d50565b6040516020818303038152906040525b9392505050565b6006546001600160a01b03163314610d525760405162461bcd60e51b81526004016105c090611f1d565b6001600160a01b038116610db75760405162461bcd60e51b815260206004820152602660248201527f4f776e61626c653a206e6577206f776e657220697320746865207a65726f206160448201526564647265737360d01b60648201526084016105c0565b610c3d816112fd565b60606000610dcd83610ae7565b67ffffffffffffffff811115610df357634e487b7160e01b600052604160045260246000fd5b604051908082528060200260200182016040528015610e5b57816020015b6040805160e0810182526060808252600060208084018290529383018190529082018190526080820181905260a0820181905260c08201528252600019909201910181610e115790505b5090506000805b600954811015610ff357846001600160a01b0316610e7f82610a70565b6001600160a01b03161415610fe15760098181548110610eaf57634e487b7160e01b600052603260045260246000fd5b90600052602060002090600402016040518060e0016040529081600082018054610ed890612012565b80601f0160208091040260200160405190810160405280929190818152602001828054610f0490612012565b8015610f515780601f10610f2657610100808354040283529160200191610f51565b820191906000526020600020905b815481529060010190602001808311610f3457829003601f168201915b5050509183525050600182015460208201526002820154604082015260039091015460ff8082166060840152610100820481166080840152620100008204811660a084015263010000009091041660c0909101528351849084908110610fc757634e487b7160e01b600052603260045260246000fd5b60200260200101819052508180610fdd9061204d565b9250505b80610feb8161204d565b915050610e62565b50909392505050565b600081815260046020526040902080546001600160a01b0319166001600160a01b038416908117909155819061103182610a70565b6001600160a01b03167f8c5be1e5ebec7d5bd14f71427d1e84f3dd0314c0f7b2291e5b200ac8c7c3b92560405160405180910390a45050565b6000818152600260205260408120546001600160a01b03166110e35760405162461bcd60e51b815260206004820152602c60248201527f4552433732313a206f70657261746f7220717565727920666f72206e6f6e657860448201526b34b9ba32b73a103a37b5b2b760a11b60648201526084016105c0565b60006110ee83610a70565b9050806001600160a01b0316846001600160a01b031614806111295750836001600160a01b031661111e8461054b565b6001600160a01b0316145b8061115957506001600160a01b0380821660009081526005602090815260408083209388168352929052205460ff165b949350505050565b826001600160a01b031661117482610a70565b6001600160a01b0316146111d85760405162461bcd60e51b815260206004820152602560248201527f4552433732313a207472616e736665722066726f6d20696e636f72726563742060448201526437bbb732b960d91b60648201526084016105c0565b6001600160a01b03821661123a5760405162461bcd60e51b8152602060048201526024808201527f4552433732313a207472616e7366657220746f20746865207a65726f206164646044820152637265737360e01b60648201526084016105c0565b611245600082610ffc565b6001600160a01b038316600090815260036020526040812080546001929061126e908490611fcf565b90915550506001600160a01b038216600090815260036020526040812080546001929061129c908490611fa3565b909155505060008181526002602052604080822080546001600160a01b0319166001600160a01b0386811691821790925591518493918716917fddf252ad1be2c89b69c2b068fc378daa952ba7f163c4a11628f55a4df523b3ef91a46106f6565b600680546001600160a01b038381166001600160a01b0319831681179093556040519116919082907f8be0079c531659141344cd1fd0a4f28419497f9722a3daafe3b4186f6b6457e090600090a35050565b816001600160a01b0316836001600160a01b031614156113b15760405162461bcd60e51b815260206004820152601960248201527f4552433732313a20617070726f766520746f2063616c6c65720000000000000060448201526064016105c0565b6001600160a01b03838116600081815260056020908152604080832094871680845294825291829020805460ff191686151590811790915591519182527f17307eab39ab6107e8899845ad3d59bd9653f200f220920489ca2b5937696c31910160405180910390a3505050565b611429848484611161565b61143584848484611718565b610c1f5760405162461bcd60e51b81526004016105c090611ecb565b600061145d6014611825565b9050600061146b6064611825565b905060006114796064611825565b9050600061148d662386f26fc10000611825565b6040805160e08101825287815260075460208083019190915291810183905260016060820181905260ff888116608084015287811660a0840152861660c0830152600980549182018155600052815180519495509193849360049092027f6e1540171b6c0c960b71a7020d9f60077f6af931a8bbf590da0223dacf75c7af019261151b928492910190611a05565b506020820151600182015560408201516002820155606082015160039091018054608084015160a085015160c09095015160ff90811663010000000263ff00000019968216620100000262ff0000199383166101000261ff00199390971660ff199095169490941791909116949094171617929092161790556007546115a290339061187a565b600754604080519182526020820184905233917fbc7d7d143abd25a4c46468a8dc71a9fc8c12d3f5969c388d86dce39f1507a856910160405180910390a2600780549060006115f08361204d565b9190505550505050505050565b60608161162257506040805180820190915260018152600360fc1b60208201526104b4565b8160005b811561164c57806116368161204d565b91506116459050600a83611fbb565b9150611626565b60008167ffffffffffffffff81111561167557634e487b7160e01b600052604160045260246000fd5b6040519080825280601f01601f19166020018201604052801561169f576020820181803683370190505b5090505b8415611159576116b4600183611fcf565b91506116c1600a86612088565b6116cc906030611fa3565b60f81b8183815181106116ef57634e487b7160e01b600052603260045260246000fd5b60200101906001600160f81b031916908160001a905350611711600a86611fbb565b94506116a3565b60006001600160a01b0384163b1561181a57604051630a85bd0160e11b81526001600160a01b0385169063150b7a029061175c903390899088908890600401611d7f565b602060405180830381600087803b15801561177657600080fd5b505af19250505080156117a6575060408051601f3d908101601f191682019092526117a391810190611caa565b60015b611800573d8080156117d4576040519150601f19603f3d011682016040523d82523d6000602084013e6117d9565b606091505b5080516117f85760405162461bcd60e51b81526004016105c090611ecb565b805181602001fd5b6001600160e01b031916630a85bd0160e11b149050611159565b506001949350505050565b600080423360405160200161185692919091825260601b6bffffffffffffffffffffffff1916602082015260340190565b60408051601f1981840301815291905280516020909101209050610d218382612088565b610a5182826040518060200160405280600081525061189983836118c2565b6118a66000848484611718565b6106f65760405162461bcd60e51b81526004016105c090611ecb565b6001600160a01b0382166119185760405162461bcd60e51b815260206004820181905260248201527f4552433732313a206d696e7420746f20746865207a65726f206164647265737360448201526064016105c0565b6000818152600260205260409020546001600160a01b03161561197d5760405162461bcd60e51b815260206004820152601c60248201527f4552433732313a20746f6b656e20616c7265616479206d696e7465640000000060448201526064016105c0565b6001600160a01b03821660009081526003602052604081208054600192906119a6908490611fa3565b909155505060008181526002602052604080822080546001600160a01b0319166001600160a01b03861690811790915590518392907fddf252ad1be2c89b69c2b068fc378daa952ba7f163c4a11628f55a4df523b3ef908290a4610a51565b828054611a1190612012565b90600052602060002090601f016020900481019282611a335760008555611a79565b82601f10611a4c57805160ff1916838001178555611a79565b82800160010185558215611a79579182015b82811115611a79578251825591602001919060010190611a5e565b50611a85929150611a89565b5090565b5b80821115611a855760008155600101611a8a565b600067ffffffffffffffff80841115611ab957611ab96120c8565b604051601f8501601f19908116603f01168101908282118183101715611ae157611ae16120c8565b81604052809350858152868686011115611afa57600080fd5b858560208301376000602087830101525050509392505050565b80356001600160a01b03811681146104b457600080fd5b600060208284031215611b3c578081fd5b610d2182611b14565b60008060408385031215611b57578081fd5b611b6083611b14565b9150611b6e60208401611b14565b90509250929050565b600080600060608486031215611b8b578081fd5b611b9484611b14565b9250611ba260208501611b14565b9150604084013590509250925092565b60008060008060808587031215611bc7578081fd5b611bd085611b14565b9350611bde60208601611b14565b925060408501359150606085013567ffffffffffffffff811115611c00578182fd5b8501601f81018713611c10578182fd5b611c1f87823560208401611a9e565b91505092959194509250565b60008060408385031215611c3d578182fd5b611c4683611b14565b915060208301358015158114611c5a578182fd5b809150509250929050565b60008060408385031215611c77578182fd5b611c8083611b14565b946020939093013593505050565b600060208284031215611c9f578081fd5b8135610d21816120de565b600060208284031215611cbb578081fd5b8151610d21816120de565b600060208284031215611cd7578081fd5b813567ffffffffffffffff811115611ced578182fd5b8201601f81018413611cfd578182fd5b61115984823560208401611a9e565b600060208284031215611d1d578081fd5b5035919050565b60008151808452611d3c816020860160208601611fe6565b601f01601f19169290920160200192915050565b60008351611d62818460208801611fe6565b835190830190611d76818360208801611fe6565b01949350505050565b6001600160a01b0385811682528416602082015260408101839052608060608201819052600090611db290830184611d24565b9695505050505050565b60208082528251828201819052600091906040908185019080840286018301878501865b83811015611e6157603f19898403018552815160e08151818652611e0682870182611d24565b838b0151878c0152898401518a88015260608085015160ff9081169189019190915260808086015182169089015260a08086015182169089015260c09485015116939096019290925250509386019390860190600101611de0565b509098975050505050505050565b600060208252610d216020830184611d24565b600060e08252611e9560e083018a611d24565b602083019890985250604081019590955260ff93841660608601529183166080850152821660a08401521660c090910152919050565b60208082526032908201527f4552433732313a207472616e7366657220746f206e6f6e20455243373231526560408201527131b2b4bb32b91034b6b83632b6b2b73a32b960711b606082015260800190565b6020808252818101527f4f776e61626c653a2063616c6c6572206973206e6f7420746865206f776e6572604082015260600190565b60208082526031908201527f4552433732313a207472616e736665722063616c6c6572206973206e6f74206f6040820152701ddb995c881b9bdc88185c1c1c9bdd9959607a1b606082015260800190565b60008219821115611fb657611fb661209c565b500190565b600082611fca57611fca6120b2565b500490565b600082821015611fe157611fe161209c565b500390565b60005b83811015612001578181015183820152602001611fe9565b83811115610c1f5750506000910152565b60028104600182168061202657607f821691505b6020821081141561204757634e487b7160e01b600052602260045260246000fd5b50919050565b60006000198214156120615761206161209c565b5060010190565b600060ff821660ff81141561207f5761207f61209c565b60010192915050565b600082612097576120976120b2565b500690565b634e487b7160e01b600052601160045260246000fd5b634e487b7160e01b600052601260045260246000fd5b634e487b7160e01b600052604160045260246000fd5b6001600160e01b031981168114610c3d57600080fdfea2646970667358221220ab78f9b8ece571bd447d986a1c515f87607893b433bc80a538f0cd2ee3f2313364736f6c63430008020033",
  "immutableReferences": {},
  "source": "// SPDX-License-Identifier: MIT\npragma solidity ^0.8.2;\n\nimport \"@openzeppelin/contracts/token/ERC721/ERC721.sol\";\nimport \"@openzeppelin/contracts/access/Ownable.sol\";\n\n\ncontract OneTrueWarriorToken is ERC721, Ownable  {\n    constructor(string memory _name, string memory _symbol)\n        ERC721(_name, _symbol)\n    {}\n\n    //variables\n    uint256 counter;\n    uint256 fee = 0.0001 ether;\n\n    struct OneTrueWarrior {\n        string name;\n        uint256 id;\n        uint256 hashNumber;\n        uint8 level;\n        uint8 rarity;\n        uint8 attack;\n        uint8 defense;\n    }\n\n    OneTrueWarrior[] public oneTruWarriors;\n\n    //event\n    event NewToken(address indexed owner, uint256 id, uint256 hashNumber);\n\n\n\n    //Generator Function\n    function generateRandomStatistic(uint256 _mod) internal view returns(uint256) {\n        uint256 randomData = uint256(keccak256(abi.encodePacked(block.timestamp, msg.sender)));\n        return randomData % _mod;\n    }\n\n    //Creation function\n    function createOnlyTrueWarrior(string memory _name) internal { \n        uint8 randRarity = uint8(generateRandomStatistic(20));\n        uint8 randAttack = uint8(generateRandomStatistic(100));\n        uint8 randDefense = uint8(generateRandomStatistic(100));\n        uint256 randHashNumber = uint256(generateRandomStatistic(10**16));\n        //Token struct properties\n        OneTrueWarrior memory newOneTrueWarrior = OneTrueWarrior(_name, counter, randHashNumber, 1, randRarity, randAttack, randDefense);\n        oneTruWarriors.push(newOneTrueWarrior);\n        _safeMint(msg.sender,counter);\n        emit NewToken(msg.sender, counter, randHashNumber);\n        counter++;\n    }\n\n    function createRandomToken(string memory _name) public payable {\n        require(msg.value >= fee);\n        createOnlyTrueWarrior(_name);   \n    }\n\n\n    //Fee functions\n    function updateFee(uint256 _fee) external onlyOwner {\n        fee = _fee;\n    }\n\n    //Withdraw\n    function withdraw() external payable onlyOwner {\n        address payable _owner = payable(owner());\n        _owner.transfer(address(this).balance);\n    }\n\n\n    //Getters\n    function getToken() public view returns (OneTrueWarrior[] memory) {\n        return oneTruWarriors;\n    }\n\n    function getOwner(address _owner) public view returns(OneTrueWarrior[] memory) {\n        OneTrueWarrior[] memory result = new OneTrueWarrior[](balanceOf(_owner));\n        uint256 Counter = 0;\n        for (uint256 i = 0; i < oneTruWarriors.length; i++) {\n            if (ownerOf(i) == _owner) {\n                result[Counter] = oneTruWarriors[i];\n                Counter++;\n            }\n        }\n        return result;\n    }\n\n    //Actions\n    function levelUp(uint256 _warriorId) public  {\n        require(ownerOf(_warriorId) == msg.sender);\n        OneTrueWarrior storage onetruewarrior = oneTruWarriors[_warriorId];\n        onetruewarrior.level++;\n    }\n\n}",
  "sourcePath": "/home/eth/projekty/games/one_true_warrior/contracts/OneTrueWarriorToken.sol",
  "compiler": {
    "name": "solc",
    "version": "0.8.2+commit.661d1103.Emscripten.clang"
  },
  "schemaVersion": "3.4.4",
  "updatedAt": "2022-02-15T18:19:42.205Z",
  "networkType": "ethereum",
  "devdoc": {
    "kind": "dev",
    "methods": {
      "approve(address,uint256)": {
        "details": "See {IERC721-approve}."
      },
      "balanceOf(address)": {
        "details": "See {IERC721-balanceOf}."
      },
      "getApproved(uint256)": {
        "details": "See {IERC721-getApproved}."
      },
      "isApprovedForAll(address,address)": {
        "details": "See {IERC721-isApprovedForAll}."
      },
      "name()": {
        "details": "See {IERC721Metadata-name}."
      },
      "owner()": {
        "details": "Returns the address of the current owner."
      },
      "ownerOf(uint256)": {
        "details": "See {IERC721-ownerOf}."
      },
      "renounceOwnership()": {
        "details": "Leaves the contract without owner. It will not be possible to call `onlyOwner` functions anymore. Can only be called by the current owner. NOTE: Renouncing ownership will leave the contract without an owner, thereby removing any functionality that is only available to the owner."
      },
      "safeTransferFrom(address,address,uint256)": {
        "details": "See {IERC721-safeTransferFrom}."
      },
      "safeTransferFrom(address,address,uint256,bytes)": {
        "details": "See {IERC721-safeTransferFrom}."
      },
      "setApprovalForAll(address,bool)": {
        "details": "See {IERC721-setApprovalForAll}."
      },
      "supportsInterface(bytes4)": {
        "details": "See {IERC165-supportsInterface}."
      },
      "symbol()": {
        "details": "See {IERC721Metadata-symbol}."
      },
      "tokenURI(uint256)": {
        "details": "See {IERC721Metadata-tokenURI}."
      },
      "transferFrom(address,address,uint256)": {
        "details": "See {IERC721-transferFrom}."
      },
      "transferOwnership(address)": {
        "details": "Transfers ownership of the contract to a new account (`newOwner`). Can only be called by the current owner."
      }
    },
    "version": 1
  },
  "userdoc": {
    "kind": "user",
    "methods": {},
    "version": 1
  }
}